:020000000328D3
:1000060083160313860183128601831688018312E1
:1000160088010608013A031D9028C0308800063082
:10002600FB001330FC00AD30FD00FD0B1828FC0B67
:100036001828FB0B182800000000603088000630E6
:10004600FB001330FC00AD30FD00FD0B2828FC0B37
:100056002828FB0B282800000000303088000630D6
:10006600FB001330FC00AD30FD00FD0B3828FC0B07
:100076003828FB0B382800000000183088000630AE
:10008600FB001330FC00AD30FD00FD0B4828FC0BD7
:100096004828FB0B4828000000000C30880006307A
:1000A600FB001330FC00AD30FD00FD0B5828FC0BA7
:1000B6005828FB0B58280000000006308800063040
:1000C600FB001330FC00AD30FD00FD0B6828FC0B77
:1000D6006828FB0B68280000000003308800063003
:1000E600FB001330FC00AD30FD00FD0B7828FC0B47
:1000F6007828FB0B78280000000081308800063045
:10010600FB001330FC00AD30FD00FD0B8828FC0B16
:100116008828FB0B8828000000000608023A031D09
:10012600B128FF3088000D30FB00AF30FC00B63040
:10013600FD00FD0B9C28FC0B9C28FB0B9C2800005B
:1001460088010D30FB00AF30FC00B630FD00FD0B22
:10015600AA28FC0BAA28FB0BAA2800000608033ACB
:10016600031DD428023088000330FB008A30FC00CF
:100176005530FD00FD0BBD28FC0BBD28FB0BBD2833
:100186000000000088010330FB008A30FC00553077
:10019600FD00FD0BCC28FC0BCC28FB0BCC2800006B
:1001A60000000608003A031DD92888010C28DA2821
:02400E004A2F37
:00000001FF
