:020000000328D3
:10000600FF30831603138600FF30831286008316A3
:1000160088018312880183168701831287010608E7
:10002600013A031DD7288701C03088000630FB003F
:100036001330FC00AD30FD00FD0B1F28FC0B1F2804
:10004600FB0B1F2800000000603088000630FB0014
:100056001330FC00AD30FD00FD0B2F28FC0B2F28C4
:10006600FB0B2F2800000000303088000630FB0014
:100076001330FC00AD30FD00FD0B3F28FC0B3F2884
:10008600FB0B3F2800000000183088000630FB00FC
:100096001330FC00AD30FD00FD0B4F28FC0B4F2844
:1000A600FB0B4F28000000000C3088000630FB00D8
:1000B6001330FC00AD30FD00FD0B5F28FC0B5F2804
:1000C600FB0B5F2800000000063088000630FB00AE
:1000D6001330FC00AD30FD00FD0B6F28FC0B6F28C4
:1000E600FB0B6F2800000000033088000630FB0081
:1000F6001330FC00AD30FD00FD0B7F28FC0B7F2884
:10010600FB0B7F2800000000063088000630FB004D
:100116001330FC00AD30FD00FD0B8F28FC0B8F2843
:10012600FB0B8F28000000000C3088000630FB0017
:100136001330FC00AD30FD00FD0B9F28FC0B9F2803
:10014600FB0B9F2800000000183088000630FB00DB
:100156001330FC00AD30FD00FD0BAF28FC0BAF28C3
:10016600FB0BAF2800000000303088000630FB0093
:100176001330FC00AD30FD00FD0BBF28FC0BBF2883
:10018600FB0BBF2800000000603088000630FB0033
:100196001330FC00AD30FD00FD0BCF28FC0BCF2843
:1001A600FB0BCF28000000000608023A031DF928C1
:1001B6008701FF3088000D30FB00AF30FC00B63001
:1001C600FD00FD0BE428FC0BE428FB0BE4280000F3
:1001D60088010D30FB00AF30FC00B630FD00FD0B92
:1001E600F228FC0BF228FB0BF22800000608033A63
:1001F600031D1C298801023087001A30FB005E307F
:10020600FC006E30FD00FD0B0629FC0B0629FB0BDE
:1002160006290000013087001A30FB005E30FC0022
:100226006E30FD00FD0B1529FC0B1529FB0B15295E
:1002360000000608003A031D2229880187011228BA
:0202460023296A
:02400E004A2F37
:00000001FF
